{
  "contractName": "Approval",
  "abi": [
    {
      "constant": true,
      "inputs": [
        {
          "name": "",
          "type": "uint256"
        }
      ],
      "name": "flags",
      "outputs": [
        {
          "name": "id",
          "type": "uint256"
        },
        {
          "name": "lat",
          "type": "uint256"
        },
        {
          "name": "lon",
          "type": "uint256"
        },
        {
          "name": "approved",
          "type": "bool"
        }
      ],
      "payable": false,
      "stateMutability": "view",
      "type": "function"
    },
    {
      "constant": true,
      "inputs": [],
      "name": "flagCount",
      "outputs": [
        {
          "name": "",
          "type": "uint256"
        }
      ],
      "payable": false,
      "stateMutability": "view",
      "type": "function"
    },
    {
      "anonymous": false,
      "inputs": [
        {
          "indexed": false,
          "name": "id",
          "type": "uint256"
        },
        {
          "indexed": false,
          "name": "lat",
          "type": "uint256"
        },
        {
          "indexed": false,
          "name": "lon",
          "type": "uint256"
        },
        {
          "indexed": false,
          "name": "approved",
          "type": "bool"
        }
      ],
      "name": "MarkerCreated",
      "type": "event"
    },
    {
      "constant": false,
      "inputs": [
        {
          "name": "lat",
          "type": "uint256"
        },
        {
          "name": "lon",
          "type": "uint256"
        }
      ],
      "name": "addFlag",
      "outputs": [],
      "payable": false,
      "stateMutability": "nonpayable",
      "type": "function"
    }
  ],
  "bytecode": "0x60806040526000805534801561001457600080fd5b506101c2806100246000396000f3fe6080604052600436106100565763ffffffff7c01000000000000000000000000000000000000000000000000000000006000350416631579fd74811461005b57806381274d3a1461008d578063f5dc7c4c146100df575b600080fd5b34801561006757600080fd5b5061008b6004803603604081101561007e57600080fd5b5080359060200135610106565b005b34801561009957600080fd5b506100b7600480360360208110156100b057600080fd5b5035610165565b6040805194855260208501939093528383019190915215156060830152519081900360800190f35b3480156100eb57600080fd5b506100f4610190565b60408051918252519081900360200190f35b600080546001908101808355604080516080810182528281526020808201978852818301968752606082018681529386528490529320925183559351908201559051600282015590516003909101805460ff1916911515919091179055565b6001602081905260009182526040909120805491810154600282015460039092015490919060ff1684565b6000548156fea165627a7a72305820b8cedb0a2e35ee809eba30b47ca3a9ffbcda8ec94df2998ece35d21f7687ed550029",
  "source": "pragma solidity ^0.5.0;\ncontract Approval {\n    uint  public flagCount=0;\n    struct Flag{\n        uint id;\n        uint lat;\n        uint lon;\n        bool approved;\n    }\n    event MarkerCreated(\n        uint id,\n        uint lat,\n        uint lon,\n        bool approved\n  );\n    mapping (uint=>Flag) public flags;\n    function addFlag(uint lat, uint lon) public {\n        flagCount++;\n        flags[flagCount] = Flag(flagCount,lat,lon,false);\n    }\n    \n  \n}",
  "sourcePath": "/home/saheelwagh/coding/hackathon/hackbout/contracts/Approval.sol",
  "compiler": {
    "name": "solc",
    "version": "0.5.0+commit.1d4f565a.Emscripten.clang"
  },
  "schemaVersion": "3.0.2",
  "updatedAt": "2020-03-05T03:18:32.859Z",
  "devdoc": {
    "methods": {}
  },
  "userdoc": {
    "methods": {}
  }
}